:020000020000FC
:0200000032C20A
:1000AC003134372A323538303336392320E0322F89
:1000BC00330F330F330F330F35B98FE0E2D066991E
:1000CC0004C023952C3099F72FE0822F0895F0E08F
:1000DC00ECEAE80F80E0F81F8491089557656C6393
:1000EC006F6D6520746F2064696365212000507208
:1000FC00657373203220746F20726F6C6C00526FBA
:10010C006C6C696E672E2E00596F7520726F6C6C5B
:10011C00656420613A003100320033003400350050
:10012C00360081BB5F9AA1D05F9808955E98F9DF85
:10013C008295F7DF8DE2A5D008955E9AF2DF829565
:10014C00F0DF8DE29ED0089584E1A8D05E9880E324
:10015C00E8DF8AE0A3D080E3E4DF8AE09FD080E38D
:10016C00E0DF8AE09BD080E2DCDF8DE28AD088E29F
:10017C00DDDF8CE0DBDF81E0D9DF82E08FD086E051
:10018C00D5DF08958591803011F0D7DFFBCF08952E
:10019C00313233343536843069F0883049F086306A
:1001AC0029F08A3009F008953FD170C11BD16EC17E
:1001BC00DFD06CC172D1F1E0EAE0E4DF01E00000D5
:1001CC0000000730D9F372DF843011F40395F7CFB8
:1001DC00802F2ED062D1F1E0E4E1D4DF013051F078
:1001EC00023069F0033081F0043099F00530B1F041
:1001FC000630C9F0F1E0E2E2C5DF68D047C1F1E0BA
:10020C00E4E2C0DF63D042C1F1E0E6E2BBDF5ED0E6
:10021C003DC1F1E0E8E2B6DF59D038C1F1E0EAE2E5
:10022C00B1DF54D033C1F1E0ECE2ACDF4FD02EC1E2
:10023C00D1E0C0E0488143954883C80F80E0D81FC7
:10024C004881439548830895D1E0C0E04FEFC80F33
:10025C0080E0D81F88810895D1E0C0E040E080E0C4
:10026C00499383958730E1F7089500000000000062
:10027C000000000000000000000000000000000072
:10028C0008950000000000000000000000000000C5
:10029C00000000008A958030A1F70895282F8AEF7E
:1002AC00F0DF8AEFEEDF8AEFECDF8AEFEADF2A95E8
:1002BC002030A9F708958AEFF1DF8AEFEFDF8AEF9C
:1002CC00EDDF8AEFEBDF8AEFE9DF0895F4DFF3DF90
:1002DC000895436C656172696E672E2E2E00546F03
:1002EC0074616C207468726F77733A004E6272207E
:1002FC006F66203127733A004E6272206F6620328F
:10030C0027733A004E6272206F66203327733A00CF
:10031C004E6272206F66203427733A004E62722050
:10032C006F66203527733A004E6272206F66203656
:10033C0027733A0091DF0895303132333435363734
:10034C003839414243444546F3E0E4E4582E829563
:10035C008F70E80F6624F61D8491EFDE852D8F706B
:10036C00E4E4F3E0E80F6624F61D8491E6DE0895DC
:10037C0094D0F2E0EAEE06DF80E066DFE5DF9BDF9B
:10038C008CD0F2E0E8EFFEDE81E05EDFDDDF93DFB4
:10039C0084D0F3E0E4E0F6DE82E056DFD5DF8BDFDD
:1003AC007CD0F3E0E0E1EEDE83E04EDFCDDF83DFF7
:1003BC0074D0F3E0ECE1E6DE84E046DFC5DF7BDF02
:1003CC006CD0F3E0E8E2DEDE85E03EDFBDDF73DF1C
:1003DC0064D0F3E0E4E3D6DE86E036DFB5DF6BDF36
:1003EC005CD008955AD0F2E0EEEDCCDE64DF34DF61
:1003FC0008954D6F6E69746F7200089557DE8330E7
:10040C0049F08B3039F08F3011F4382EF7CF83153B
:10041C00A9F3382E08958EE390DE8B2F95DF8A2F6B
:10042C0093DF8AE38ADE089538D0F3E0EEEFAADE9C
:10043C0042DFB0E0A0E031D0EEDF8D9185DFDEDF72
:10044C00833051F08B3029F042DE8053B82FAA272D
:10045C00F2CF88EC23DFEFCF08950FEF0DBF0AE04A
:10046C000EBF0E943E020E94AA000E94030208C016
:10047C0000EC0AB900E00DB90FEF00BB04B9089508
:10048C000CD0F0E0E8EE7EDE16DF15DF06D0F0E0F3
:10049C00EAEF78DE0BDE7FDEFDCF81E047DE84E61F
:0404AC00FDDE0895D4
:00000001FF
